S01700004763634170706C69636174696F6E312E737265635B
S11300000C9434000C9451000C9451000C94510045
S11300100C9451000C94B2030C9451000C94820083
S11300200C9451000C9451000C9451000C94510008
S11300300C9451000C9451000C9451000C945100F8
S11300400C9451000C9451000C9451000C945100E8
S11300500C9451000C94B6020C9451000C94510071
S11300600C9451000C94510011241FBECFEFD8E022
S1130070DEBFCDBF11E0A0E0B1E0E4E6FDE002C0E8
S113008005900D92AA33B107D9F721E0AAE3B1E0B4
S113009001C01D92AB35B207E1F70E9445020C94F2
S11300A0B0060C94000083E480937C008EE8809377
S11300B07A0008958AB184658AB98BB18B7A8BB939
S11300C08AB187758AB9E8E6F0E08081846080832C
S11300D0EDE6F0E08081886A80830895E0EBF0E04B
S11300E0808182608083E1EBF0E0808184608083A2
S11300F089EF8093B300E0E7F0E080818260808341
S1130100789408951F920F920FB60F9211242F9393
S11301103F934F935F936F937F938F939F93AF938B
S1130120BF93EF93FF9380913A0190913B01019625
S113013090933B0180933A0165E070E00E94380699
S1130140892B11F40E94560280913A0190913B014F
S113015064E170E00E943806892B11F40E94590270
S113016080913A0190913B016CE370E00E94380663
S1130170892B31F40E946A0210923B0110923A01D9
S1130180FF91EF91BF91AF919F918F917F916F916B
S11301905F914F913F912F910F900FBE0F901F9041
S11301A0189584B1866084B982EB809380008AE1DB
S11301B0809381008FE39CE990938700809386006D
S11301C008959C0140E050E060E472E48FE090E028
S11301D00E944C06215031093093C5002093C4007D
S11301E088E98093C10086E08093C200089510924C
S11301F0B90088E98093B80084E08093BC00089536
S113020084EA8093BC008091BC008823E4F70895BD
S113021084E98093BC0008958093BB0084E88093B4
S1130220BC008091BC008823E4F70895882311F072
S113023084EC01C084E88093BC008091BC008823D6
S1130240E4F78091BB000895CF93DF93D82FC62F96
S11302500E940001CC2311F08FE401C08EE40E94BF
S11302600C01C11103C08D2F0E940C01DF91CF91AD
S11302700895CF9320E1829FC0011124C82FC86044
S113028060E08C600E9424010E940801000060E08C
S11302908C2F0E9424010E940801CF910895CF93CE
S11302A060E08AEF0E9424010E94080160E08EEF62
S11302B00E9424010E940801000061E080E00E9485
S11302C0240181E00E941601C82F0E94080160E009
S11302D08AEF0E9424010E94080160E08EEF0E94D0
S11302E024010E940801000061E080E00E942401D2
S11302F080E00E9416010E94080160E08AEF0E94DB
S113030024010E9408018C2F8078CF9108950E94C7
S11303104F018111FCCF08951F93CF93DF93C82F12
S1130320162F0E948701D1E0113009F0D0E08C2F04
S1130330807F8D2B182F186060E08C600E94240150
S11303400E940801000060E0812F0E9424010E94A5
S1130350080120E1C29FC00111248D2BC82FC86061
S113036060E08C600E9424010E940801000060E0AB
S11303708C2F0E9424010E940801DF91CF911F91CC
S11303800895CF93DF93EC0104C0219661E00E94AD
S11303908C0188818111F9CFDF91CF91089560E0BC
S11303A081E00E948C010E94870108950E94F70059
S11303B083ED90E30197F1F700C0000083E00E9411
S11303C0390181EE94E00197F1F700C0000083E069
S11303D00E94390192E49A95F1F700C083E00E94EB
S11303E0390182E48A95F1F700C082E00E94390164
S11303F060E088E20E948C0160E08CE00E948C0145
S113040060E086E00E948C010E94CF010895813053
S113041011F480E401C080E0860F60E080680E94EF
S11304208C01089560E080E00E94070283E091E07F
S11304300E94C10160E081E00E9407028FE091E028
S11304400E94C101089560E080E00E94070283E0F9
S113045091E00E94C10160E081E00E9407028EE108
S113046091E00E94C101089560E080E00E940702CB
S113047083E091E00E94C10160E081E00E940702F4
S11304808EE291E00E94C10108950E946E0080E80E
S113049095E20E94E1000E9453000E94D1000E9454
S11304A05A000E94D6010E94CF01FFCF0E94B002E1
S11304B0089580915501909156010E947F046091A6
S11304C053017091540180915701909158010E94F9
S11304D0400408950E94AD0308959C01A4EBB0E08C
S11304E00E948D062FEF33E040E050E00E946E063C
S11304F0622F70E080E090E00E943D0520E030E053
S113050044E353E40E949C0420E030E04AE755E4CD
S11305100E94CB050E940E0568517C4F70938900A0
S11305206093880008956817790720F49C01261BBE
S1130530370B02C020E030E0AFE3BCE90E948D0637
S1130540DC01CB01072E7AE0B695A79597958795A0
S11305507A95D1F7702D90938B0080938A0008953B
S1130560EAE7F0E080818064808308951F920F920F
S11305700FB60F9211248F939F93809100018230C4
S113058049F480917800909179009093560180937A
S1130590550126C080910001813049F48091780092
S11305A090917900909358018093570119C08091DC
S11305B00001811109C08091780090917900909395
S11305C05401809353010CC080910001833041F4A5
S11305D0809178009091790090935A018093590109
S11305E080910001823021F481E08093000112C0E7
S11305F080910001813019F4109200010BC08091A8
S11306000001811104C083E08093000103C082E0F3
S113061080930001809100018770806480937C0046
S11306209F918F910F900FBE0F901F901895AF92CE
S1130630BF92CF92DF92FF920F931F93CF93DF93DA
S1130640F82EC82FD0E0FE01EE5BFE4F8081813092
S113065009F045C08E01000F111FF801EB5BFE4F3E
S113066080819181A0E0B0E0AC01BD01440F551F31
S1130670661F771F440F551F661F771F5A016B01B2
S1130680A80EB91ECA1EDB1EC601B50124E432E061
S113069040E050E00E944C06F801E45CFE4F3183D8
S11306A02083808191810B97B8F4BB24B394FB140D
S11306B061F0FB1430F06894CC24C1F8FC1449F0C8
S11306C00BC081E08093520107C082E08093520105
S11306D003C083E080935201CE5BDE4F1882DF912A
S11306E0CF911F910F91FF90DF90CF90BF90AF906B
S11306F0089580913C0190913D010B9770F0809199
S11307003E0190913F010B9740F080914001909100
S113071041010B9710F01092520108958BB184603F
S11307208BB983E08A95F1F700008BB18B7F8BB98D
S11307308BB180618BB983E08A95F1F700008BB1AE
S11307408F7E8BB98BB180648BB983E08A95F1F786
S113075000008BB18F7B8BB908950E948E030E9499
S1130760790308951F920F920FB60F9211242F93BD
S11307703F934F935F936F937F938F939F93AF9325
S1130780BF93CF93DF93EF93FF93D9B1C0914B0104
S1130790CD27C3FF1FC0D3FF09C08091840090916F
S11307A0850090934D0180934C0114C08091840086
S11307B09091850020914C0130914D01821B930B47
S11307C0909346018093450181E08093420180E04B
S11307D00E941703C5FF1EC0D5FF09C08091840085
S11307E09091850090934F0180934E0113C08091A6
S11307F084009091850020914E0130914F01821B1D
S1130800930B909348018093470181E080934301C7
S11308100E941703CC23FCF4DD234CF48091840064
S113082090918500909351018093500114C0809160
S11308308400909185002091500130915101821BD8
S1130840930B90934A018093490181E08093440182
S113085082E00E941703D0934B01FF91EF91DF9147
S1130860CF91BF91AF919F918F917F916F915F9144
S11308704F913F912F910F900FBE0F901F9018959D
S11308800F931F93CF93DF93EC018B01809152015F
S1130890482F50E020910101309102014217530783
S11308A0D1F0813049F028F0823061F0833039F0A2
S11308B00BC00E94CF0108C00E94120205C00E9412
S11308C0230202C00E9434028091520190E090936E
S11308D002018093010180915201823039F460E079
S11308E070E080E090E00E94930204C0B801CE0161
S11308F00E949302DF91CF911F910F9108959C0163
S113090090915201913051F028F0923089F0933057
S113091051F00895C9010E946D02089588EE93E094
S11309200E946D02089584E690E00E946D0208958D
S1130930C9010E946D0208950E94B0040C949105AF
S11309400E948A0558F00E94830540F029F45F3F15
S113095029F00C947A0551110C94C5050C9480056A
S11309600E94A20568F39923B1F3552391F3951BD3
S1130970550BBB27AA2762177307840738F09F5FBC
S11309805F4F220F331F441FAA1FA9F335D00E2E29
S11309903AF0E0E832D091505040E695001CCAF796
S11309A02BD0FE2F29D0660F771F881FBB1F261759
S11309B037074807AB07B0E809F0BB0B802DBF0130
S11309C0FF2793585F4F3AF09E3F510578F00C94FF
S11309D07A050C94C5055F3FE4F3983ED4F38695FD
S11309E077956795B795F7959F5FC9F7880F911D20
S11309F09695879597F90895E1E0660F771F881F0C
S1130A00BB1F621773078407BA0720F0621B730BBE
S1130A10840BBA0BEE1F88F7E09508950E94AA058F
S1130A2088F09F5798F0B92F9927B751B0F0E1F0AB
S1130A30660F771F881F991F1AF0BA95C9F714C05B
S1130A40B13091F00E94C405B1E008950C94C4053E
S1130A50672F782F8827B85F39F0B93FCCF3869594
S1130A6077956795B395D9F73EF4909580957095F1
S1130A7061957F4F8F4F9F4F0895E89409C097FB6E
S1130A803EF490958095709561957F4F8F4F9F4F61
S1130A909923A9F0F92F96E9BB279395F6958795A5
S1130AA077956795B795F111F8CFFAF4BB0F11F468
S1130AB060FF1BC06F5F7F4F8F4F9F4F16C088230F
S1130AC011F096E911C0772321F09EE8872F762F45
S1130AD005C0662371F096E8862F70E060E02AF086
S1130AE09A95660F771F881FDAF7880F9695879572
S1130AF097F9089597F99F6780E870E060E008959A
S1130B009FEF80EC089500240A9416161706180621
S1130B100906089500240A941216130614060506FD
S1130B200895092E0394000C11F4882352F0BB0F8E
S1130B3040F4BF2B11F460FF04C06F5F7F4F8F4FF1
S1130B409F4F089557FD9058440F551F59F05F3F2C
S1130B5071F04795880F97FB991F61F09F3F79F0DB
S1130B6087950895121613061406551FF2CF46955D
S1130B70F1DF08C0161617061806991FF1CF8695DF
S1130B807105610508940895E894BB2766277727C3
S1130B90CB0197F908950E94DE050C9491050E94FB
S1130BA0830538F00E948A0520F0952311F00C94F7
S1130BB07A050C94800511240C94C5050E94A205A5
S1130BC070F3959FC1F3950F50E0551F629FF0019C
S1130BD0729FBB27F00DB11D639FAA27F00DB11DB5
S1130BE0AA1F649F6627B00DA11D661F829F22273E
S1130BF0B00DA11D621F739FB00DA11D621F839FC5
S1130C00A00D611D221F749F3327A00D611D231F9A
S1130C10849F600D211D822F762F6A2F11249F57E8
S1130C2050409AF0F1F088234AF0EE0FFF1FBB1FEB
S1130C30661F771F881F91505040A9F79E3F5105AA
S1130C4080F00C947A050C94C5055F3FE4F3983E5C
S1130C50D4F3869577956795B795F795E7959F5F54
S1130C60C1F7FE2B880F911D9695879597F90895E6
S1130C7097FB072E16F4009407D077FD09D00E9445
S1130C809C0607FC05D03EF4909581959F4F0895EE
S1130C90709561957F4F0895A1E21A2EAA1BBB1B84
S1130CA0FD010DC0AA1FBB1FEE1FFF1FA217B30734
S1130CB0E407F50720F0A21BB30BE40BF50B661F4A
S1130CC0771F881F991F1A9469F76095709580950E
S1130CD090959B01AC01BD01CF010895052E97FBB2
S1130CE01EF400940E94850657FD07D00E944C060E
S1130CF007FC03D04EF40C9485065095409530952E
S1130D0021953F4F4F4F5F4F089590958095709573
S1130D1061957F4F8F4F9F4F0895A29FB001B39F5E
S1130D20C001A39F700D811D1124911DB29F700DF0
S1130D30811D1124911D0895AA1BBB1B51E107C0FD
S1130D40AA1FBB1FA617B70710F0A61BB70B881F57
S1130D50991F5A95A9F780959095BC01CD010895E6
S1070D60F894FFCF31
S1130D6402FF00456D657267656E63792121003E5B
S1130D743E20476F204C454654203C3C20003E3ED8
S1130D8420476F205249474854203C3C20003E3EB3
S10D0D942053544F50203C3C200033
S9030000FC
